S00E0000752D626F6F742E73726563C0
S31517800000B80000EA14F09FE514F09FE514F09FE519
S3151780001014F09FE514F09FE514F09FE514F09FE523
S3151780002060008017C0008017200180178001801715
S31517800030E001801740028017A0028017EFBEADDE61
S315178000402000900000F020E300F020E300F020E38A
S3151780005000F020E300F020E300F020E300F020E337
S3151780006028D01FE500E08DE500E04FE104E08DE53F
S3151780007013D0A0E30DF069E10FE0A0E10EF0B0E137
S3151780008048D04DE2FF1F8DE850201FE50C0092E8FF
S3151780009048008DE234508DE20E10A0E10F0085E8FE
S315178000A00D00A0E1B80600FA00F020E300F020E387
S315178000B000F020E300F020E300F020E300F020E3D7
S315178000C088D01FE500E08DE500E04FE104E08DE57F
S315178000D013D0A0E30DF069E10FE0A0E10EF0B0E1D7
S315178000E048D04DE2FF1F8DE8B0201FE50C0092E83F
S315178000F048008DE234508DE20E10A0E10F0085E89E
S315178001000D00A0E1AA0600FA00F020E300F020E334
S3151780011000F020E300F020E300F020E300F020E376
S31517800120E8D01FE500E08DE500E04FE104E08DE5BE
S3151780013013D0A0E30DF069E10FE0A0E10EF0B0E176
S3151780014048D04DE2FF1F8DE810211FE50C0092E87D
S3151780015048008DE234508DE20E10A0E10F0085E83D
S315178001600D00A0E19C0600FA00F020E300F020E3E2
S3151780017000F020E300F020E300F020E300F020E316
S3151780018048D11FE500E08DE500E04FE104E08DE5FD
S3151780019013D0A0E30DF069E10FE0A0E10EF0B0E116
S315178001A048D04DE2FF1F8DE870211FE50C0092E8BD
S315178001B048008DE234508DE20E10A0E10F0085E8DD
S315178001C00D00A0E18E0600FA00F020E300F020E390
S315178001D000F020E300F020E300F020E300F020E3B6
S315178001E0A8D11FE500E08DE500E04FE104E08DE53D
S315178001F013D0A0E30DF069E10FE0A0E10EF0B0E1B6
S3151780020048D04DE2FF1F8DE8D0211FE50C0092E8FC
S3151780021048008DE234508DE20E10A0E10F0085E87C
S315178002200D00A0E1800600FA00F020E300F020E33D
S3151780023000F020E300F020E300F020E300F020E355
S3151780024008D21FE500E08DE500E04FE104E08DE57B
S3151780025013D0A0E30DF069E10FE0A0E10EF0B0E155
S3151780026048D04DE2FF1F8DE830221FE50C0092E83B
S3151780027048008DE234508DE20E10A0E10F0085E81C
S315178002800D00A0E17C0600FA00F020E300F020E3E1
S3151780029000F020E300F020E300F020E300F020E3F5
S315178002A068D21FE500E08DE500E04FE104E08DE5BB
S315178002B013D0A0E30DF069E10FE0A0E10EF0B0E1F5
S315178002C048D04DE2FF1F8DE890221FE50C0092E87B
S315178002D048008DE234508DE20E10A0E10F0085E8BC
S315178002E00D00A0E15A0600FA120000EA00000FE19D
S315178002F01F1000E21A0031E31F00C013130080138A
S31517800300C00080E300F029E1100F11EE020AC0E366
S31517800310100F01EEC0009FE5100F0CEE060000EBE4
S315178003202C0000EBA40300EB150F07EE9A0F07EED0
S31517800330950F07EE1EFF2FE1EBFFFFEA0000A0E304
S31517800340170F08EE150F07EED50F07EE9A0F07EE64
S31517800350950F07EE100F11EE020AC0E30700C0E3F0
S31517800360020080E3020B80E3010A80E3100F01EE9F
S31517800370300F1FEE100080E3300F0FEE300F1FEE99
S31517800380400080E3300F0FEE300F1FEE020B80E335
S31517800390300F0FEE300F1FEE020680E3300F0FEE91
S315178003A0300F1FEE010580E3300F0FEE0E50A0E1E0
S315178003B0101F10EE213AA0E10F3003E20F4001E241
S315178003C00322A0E1022084E110009FE50700C0E325
S315178003D000D0A0E105F0A0E16E0300EA00008017C7
S309178003E0F0FE9300FB
S309178003E4FFFFFFFF7C
S315178003E870470148704700BF030000800048704770
S315178003F80300008000487047030000800048704754
S315178004080300008000487047030000800048704743
S315178004180300008000487047030000802DE9F041EB
S315178004281B4A136883B389B30D6835B910F0010F62
S31517800438184818BF0020BDE8F0814FF0000C6746B2
S31517800448D2F804E0D2F80880BE4501D11248F2E7FF
S31517800458D3E90260B5427CEB000212D3D3E90624AE
S31517800468240344EA12541203921940EB0400954266
S315178004787CEB000005D21B6900202B449B1B0B6065
S31517800488D9E701374344DFE70448D4E70148D2E779
S31517800498800E8017020000800E00008003000080FF
S315178004A810B5044600202146E268206100F080FADC
S315178004B8206110BD01380A44914200D1704711F85E
S315178004C8013B00F8013FF7E70448054B10300364F2
S315178004D8044B8361044BC361FFF7E2BF800E801715
S315178004E8E9038017EB038017F50380172DE9F04D7D
S315178004F806460C462B4DDFF8B0802C4F454505D35D
S315178005082B4B1E60BDE8F04D00F0F6BCD9F83C3091
S31517800518D5F800A0A3F1BC5C0AEB0C005CB1254B9F
S31517800528984202D3343398421FD9234B98421CD00A
S31517800538043B984219D02A79172A11D11C4B5AF895
S315178005480C201B68F31A13448CB900F143014AF837
S315178005580C3021F03F0120F03F0000F0F6FC04E054
S315178005680023394615484DF0DFFB0835C6E70022C4
S31517800578D4E904BE5B4572EB0E020DD3D4E9061295
S31517800588120342EA1152090311EB0B014EEB020EC5
S3151780059899427EF1000ED8D20246394608484DF060
S315178005A8C3FBE2E7B4D4871784D587179A5A851772
S315178005B820A78717A80E80171C0E8017C4098017BF
S315178005C8E609801737B5002514460195069D0095C7
S315178005D800F0CEF81CB1236803F07F03236003B0BD
S315178005E830BD00F081B80000F0B5044600F10F055C
S315178005F800F11F0601200139B54200D058B904F118
S31517800608200131F8025B18B11088461B7042704179
S315178006184DB10232F5E715F8010F11F8017FC71B9F
S3151780062878427841E8E72BB1226807320A4422F0E4
S3151780063807021A6008B1014B1C60F0BDE80E8017D7
S3151780064810B5044C0020211DFFF7E8FE0023236010
S3151780065810BD00BFE80E80172DE9F745214C1546C2
S3151780066863680A881E6980460F461E4462B925B98B
S315178006780024204603B0BDE8F0851833B3422B60B3
S31517800688F6D300242C60F4E7206868B10A462B460F
S315178006984146FFF7A9FF38B125B12B68B34224BF66
S315178006A800232B602468E4E764681834A64215D9B2
S315178006B84FF0000A01AB3A4641462046FFF794FFAA
S315178006C8019BB34228BFCDF804A020B1002DD0D006
S315178006D8019B2B60CDE7019C002CEBD1002DD0D147
S315178006E8C6E700BFE80E80172DE9F3410D46174672
S315178006F8064618B91B4802B0BDE8F0810029F9D01B
S31517800708002AF7D00168284600F000F9336898421E
S31517800718F0D02946384601AAFFF79EFF10B92B88CD
S31517800728002BE7D1DDF80480B8F1000F16D008F151
S3151780073820010B4633F8024B002CFBD130685A1A26
S31517800748824232600CD82846FFF7B4FE1022384604
S3151780075808EB0201FFF7AEFE2046CCE70248CAE748
S315178007680248C8E7020000800E0000800500008056
S31517800778844608466146F8B51746DDE906561C4687
S3151780078809B91448F8BD0028FBD0002BF9D00022E8
S31517800798FFF762FFC8B10FB143683B601EB1D0E956
S315178007A80223C6E90023236802689A4222600ED874
S315178007B8002DE6D000F1200131F8024B002CFBD131
S315178007C82846FFF777FE2046DCE70348DAE703482B
S315178007D8D8E700BF020000800E0000800500008061
S315178007E8F8B518B3124C21686668814228BF00216C
S315178007F8336928BF2160F21800F1200131F8025BAE
S31517800808002DFBD1076803440737394421F00701C0
S315178008185B1A521A3361FFF74DFE646828462269B8
S3151780082804F11801183A00F0C3F86061F8BD00BFE3
S31517800838E80E80172DE9F34D00241E46264B804671
S315178008485F68D7F810A007EB0A0038F814500134F8
S31517800858002DFAD1630001930B9B00F1200BA3EBB4
S31517800868070C0BEB4404B444A444BCF5804F30D82A
S315178008784260F21847F80A20DDE90E23C0E90223F9
S3151780088810221044FFF716FE019B41461A46584612
S31517800898FFF710FE324620460A99FFF70BFEA01976
S315178008A80B9A0C99FFF706FE57F80A200A4B073258
S315178008B85E68224422F00702921B32612846183A4C
S315178008C806F1180100F074F87061284602B0BDE881
S315178008D8F08D0248FAE700BFE80E801709000080F6
S315178008E8034B00215B681869C0F57F502030704725
S315178008F8E80E801700487047030000800048704745
S3151780090803000080FFF734BFFFF7EEBE03460020CB
S31517800918884202D033F8102002B970470130F7E7BA
S31517800928F0B58C070ED06AB1204C11F8013B013A05
S3151780093883EA0003DBB254F8233083EA102001D008
S315178009488B07F2D10E4602F00303184C22F00302E6
S315178009585718B74211D1043A11446BB10333134C64
S31517800968CA1C194412F8013F4340DBB254F82330A6
S315178009788A4283EA1020F5D1F0BD56F8045B6840A1
S31517800988C5B254F8255085EA1025E8B254F82000E0
S3151780099880EA1520C5B254F8255085EA1025E8B29D
S315178009A854F8200080EA1520D3E700BF140A801769
S315178009B808B5C043FFF7B4FFC04308BD25733A206F
S315178009C8556E6B6E6F776E2072656C6F636174691F
S315178009D86F6E207479706520256C6C780A0025737C
S315178009E83A2052656C6F636174696F6E20617420E3
S315178009F82570206973206F7574206F662072616EF3
S31517800A0867652028256C78290A00000000000000F1
S31517800A18963007772C610EEEBA51099919C46D0766
S31517800A288FF46A7035A563E9A395649E3288DB0EC1
S31517800A38A4B8DC791EE9D5E088D9D2972B4CB609A4
S31517800A48BD7CB17E072DB8E7911DBF906410B71D81
S31517800A58F220B06A4871B9F3DE41BE847DD4DA1ABA
S31517800A68EBE4DD6D51B5D4F4C785D38356986C13EB
S31517800A78C0A86B647AF962FDECC9658A4F5C011464
S31517800A88D96C0663633D0FFAF50D088DC8206E3B42
S31517800A985E10694CE44160D5727167A2D1E4033C54
S31517800AA847D4044BFD850DD26BB50AA5FAA8B5357B
S31517800AB86C98B242D6C9BBDB40F9BCACE36CD8326A
S31517800AC8755CDF45CF0DD6DC593DD1ABAC30D92611
S31517800AD83A00DE518051D7C81661D0BFB5F4B42114
S31517800AE823C4B3569995BACF0FA5BDB89EB8022811
S31517800AF80888055FB2D90CC624E90BB1877C6F2F96
S31517800B08114C6858AB1D61C13D2D66B69041DC7690
S31517800B180671DB01BC20D2982A10D5EF8985B17169
S31517800B281FB5B606A5E4BF9F33D4B8E8A2C9077818
S31517800B3834F9000F8EA8099618980EE1BB0D6A7FAF
S31517800B482D3D6D08976C6491015C63E6F4516B6B68
S31517800B5862616C1CD83065854E0062F2ED95066C1D
S31517800B687BA5011BC1F4088257C40FF5C6D9B06592
S31517800B7850E9B712EAB8BE8B7C88B9FCDF1DDD62EF
S31517800B88492DDA15F37CD38C654CD4FB5861B24D55
S31517800B98CE51B53A7400BCA3E230BBD441A5DF4A1F
S31517800BA8D795D83D6DC4D1A4FBF4D6D36AE96943E2
S31517800BB8FCD96E34468867ADD0B860DA732D04448D
S31517800BC8E51D03335F4C0AAAC97C0DDD3C710550B8
S31517800BD8AA41022710100BBE86200CC925B568575F
S31517800BE8B3856F2009D466B99FE461CE0EF9DE5EA8
S31517800BF898C9D9292298D0B0B4A8D7C7173DB35959
S31517800C08810DB42E3B5CBDB7AD6CBAC02083B8EDE9
S31517800C18B6B3BF9A0CE2B6039AD2B1743947D5EAF6
S31517800C28AF77D29D1526DB048316DC73120B63E325
S31517800C38843B64943E6A6D0DA85A6A7A0BCF0EE484
S31517800C489DFF099327AE000AB19E077D44930FF03F
S31517800C58D2A3088768F2011EFEC206695D5762F736
S31517800C68CB67658071366C19E7066B6E761BD4FE73
S31517800C78E02BD3895A7ADA10CC4ADD676FDFB9F950
S31517800C88F9EFBE8E43BEB717D58EB060E8A3D6D612
S31517800C987E93D1A1C4C2D83852F2DF4FF167BBD140
S31517800CA86757BCA6DD06B53F4B36B248DA2B0DD843
S31517800CB84C1B0AAFF64A0336607A0441C3EF60DFE6
S31517800CC855DF67A8EF8E6E3179BE69468CB361CBCF
S31517800CD81A8366BCA0D26F2536E2685295770CCCF4
S31517800CE803470BBBB91602222F260555BE3BBAC535
S31517800CF8280BBDB2925AB42B046AB35CA7FFD7C226
S31517800D0831CFD0B58B9ED92C1DAEDE5BB0C2649B16
S31517800D1826F263EC9CA36A750A936D02A906099C49
S31517800D283F360EEB8567077213570005824ABF95BC
S31517800D38147AB8E2AE2BB17B381BB60C9B8ED2923F
S31517800D480DBED5E5B7EFDC7C21DFDB0BD4D2D38696
S31517800D5842E2D4F1F8B3DD686E83DA1FCD16BE8109
S31517800D685B26B9F6E177B06F7747B718E65A0888DA
S31517800D78706A0FFFCA3B06665C0B0111FF9E658F6B
S31517800D8869AE62F8D3FF6B6145CF6C1678E20AA015
S31517800D98EED20DD75483044EC2B30339612667A79B
S31517800DA8F71660D04D476949DB776E3E4A6AD1AEEA
S31517800DB8DC5AD6D9660BDF40F03BD83753AEBCA979
S31517800DC8C59EBBDE7FCFB247E9FFB5301CF2BDBDE6
S31517800DD88AC2BACA3093B353A6A3B4240536D0BAEF
S31517800DE89306D7CD2957DE54BF67D9232E7A66B38C
S31517800DF8B84A61C4021B685D942B6F2A37BE0BB439
S31517800E08A18E0CC31BDF055A8DEF022D000000003B
S31517800E18180E8017180E801749424920535953546C
S31517800E285A00020048000000000000000000000079
S31517800E38680E8017001022200000000000000000AE
S31517800E4800000000000000000000000000000000FD
S31517800E58900E8017000000000000000000000000B8
S31517800E68440061007300200055002D0042006F0072
S31517800E786F007400000000000000000000000000EA
S31517800E88000000000000000052554E545345525634
S31517800E985A00020050000000000000000000000001
S31517800EA88D0F8417790F8417FD038017FD03801715
S31517800EB8D90F841725048017DF14841755158417B7
S31517800EC819158417FD038017310F841705048017A2
S31517800ED80D04801775158417E00E8017E00E801796
S30D17800EE8000000000000000065
S31517800EF0FFFFFFFFFFFFFFFFFFFFFFFFFFFFFFFF65
S31517800F00002307EE153F07EED53FBFF34F8FBFF38D
S31517800F106F8F704708B500F0B6E8BDE8084000F057
S31517800F2013BB08B500F004E9BDE8084000F006BB1E
S31517800F3008B501F0C9FBFFF7F4FF002308EE173F4A
S31517800F4008EE163F08EE153FBFF34F8FBFF36F8F2F
S31517800F5008BD38B504460D4600F0BAFE30EE103F90
S31517800F60012203F0070304339A40534223409D42DC
S31517800F7007D8BFF34F8F29462046BDE8384000F083
S31517800F80E9BA07EE3E3F1344F1E708B5FFF7E1FFED
S31517800F90002308EE173F08EE163F08EE153FBFF3FE
S31517800FA04F8FBFF36F8F08BD70B504460D4600F09F
S31517800FB08FFE30EE106F2946204600F089FE38B135
S31517800FC00122234606F007060436B2409D4207D80B
S31517800FD0BFF34F8F29462046BDE8704000F0CEBA42
S31517800FE007EE363F1344F1E75FF07FF5300F30EEAB
S31517800FF0A03BA0E10E3013E21C00000A00A0A0E37C
S31517801000AA208AE03012A0E1071001E2020051E31C
S31517801010130000BA10AF40EE6FF07FF5101F30EE59
S31517801020072001E2042082E2FF4300E3A14114E096
S31517801030145F6FE1FF7F07E3A17617E00790A0E1C2
S315178010401465A0E106B08AE11962A0E106B08BE1CA
S315178010505EBF07EE019059E2F8FFFFAA014054E2FE
S31517801060F5FFFFAA02A08AE20A0053E1E3FFFFCA4F
S3151780107000A0A0E310AF40EE4EF07FF56FF07FF53E
S315178010801EFF2FE1F04E2DE9D6FFFFEBF04EBDE8A0
S315178010901EFF2FE15FF07FF5300F30EEA03BA0E10A
S315178010A00E3013E21C00000A00A0A0E3AA208AE0F3
S315178010B03012A0E1071001E2020051E3130000BAD3
S315178010C010AF40EE6FF07FF5101F30EE072001E26C
S315178010D0042082E2FF4300E3A14114E0145F6FE12D
S315178010E0FF7F07E3A17617E00790A0E11465A0E1DB
S315178010F006B08AE11962A0E106B08BE156BF07EE0A
S31517801100019059E2F8FFFFAA014054E2F5FFFFAAC2
S3151780111002A08AE20A0053E1E3FFFFCA00A0A0E318
S3151780112010AF40EE4EF07FF56FF07FF51EFF2FE183
S31517801130F04E2DE9D6FFFFEBF04EBDE81EFF2FE1EF
S31517801140704710B5044600F056FCE3070DD500F03E
S315178011507FFE01F017FBFFF7E4FE00F034FEFFF782
S31517801160CFFEFFF7EDFF002010BD00F02CFEFFF736
S31517801170C7FEFFF7CFFEFFF7C3FE00F01BFEF0E7B3
S315178011800320FFF7DEBF0000100F11EE0200C0E349
S31517801190100F01EE1EFF2FE118D09FE507D0CDE384
S315178011A011DE4DE207D0CDE30D90A0E100502DE979
S315178011B0F50700FA0090BDE8F0FE930078009FE5EA
S315178011C00700C0E300D0A0E16D4600FA00D0A0E189
S315178011D00090A0E16D4600FA0000A0E3A34C00FA48
S315178011E04C0099E50700C0E300D0A0E1549099E53B
S315178011F00CE08FE2500099E500E08EE03C0099E51F
S315178012001F0000EA1B0000EB46FCFFEB2C009FE556
S315178012102C309FE50010A0E3002053E0EF0000FA82
S315178012206E4C00FA6D4C00FB0900A0E13C1099E565
S3151780123010E09FE51EFF2FE144EEFFFFF0FE9300BF
S3151780124084D58717784F8817154681170DC0A0E163
S31517801250F05F80E80000A0E31EFF2FE1F05F90E8C3
S315178012600CD0A0E10100A0E1000050E30000001AB5
S315178012700100A0E31EFF2FE13C0099E5100F0CEE4D
S315178012801EFF2FE108304FE264109FE5031081E0BF
S31517801290014050E01500000A54109FE5031081E0C5
S315178012A050209FE5032082E0000CB1E8000CA0E8EF
S315178012B0020051E1FBFFFF3A3C109FE5032081E0D6
S315178012C038109FE5033081E00300B2E8FF1001E292
S315178012D0170051E30300001A040080E0001090E520
S315178012E0041081E0001080E5030052E1F5FFFF3A14
S315178012F01EFF2FE17CEDFFFF00C3070000C3070029
S31517801300B0C408001FB50023D9F80020D16B126C22
S31517801310CDE90013CDE902236946012302AA13F00A
S31517801320A9FC05B05DF804FB7047000073B5D9F8C2
S31517801330003005465B6BD0F894601A480C460193CB
S3151780134031F066F948B1102101AA4CF07EFD0028CC
S3151780135022DB019914484CF0EBFCFFF7E5FF134BA2
S31517801360134904F40074002C08BF194611484CF031
S31517801370DFFC4FF48C401AF005FA4FF4C0601AF070
S3151780138001FAFFF7FDFED5F8A4303BB1D5F8A020BA
S3151780139014B920460199B04702B070BDD9F800300C
S315178013A09A6BF5E7816B8517886B8517780C861787
S315178013B06A6B8517AD6B85177047000010B50446A5
S315178013C0094831F025F9D4F8A43033B1204605F011
S315178013D0A7F820B105484BF05DFF0548FBE7204687
S315178013E0BDE81040FFF7E8BF37948517C66B85179A
S315178013F0DB6B8517F8B510F0C00704461D4614D168
S3151780140010F4807605D01846FFF7D8FF3E4630464B
S31517801410F8BD10F4C06F04D021462846FFF786FF23
S31517801420F5E71846FFF7CAFFF6E74FF0FF36EEE700
S3151780143010B50446D0F8A00060B1084942F09AFC6E
S31517801440002807DDD4F8A000FFF75CFF10B1044829
S3151780145015F08DFDBDE81040FFF792BE026C85171B
S315178014600A6C8517D0F89430D0F8A000184700007A
S3151780147010B590F8254090F8243043EA042390F865
S31517801480264043EA044390F8274043EA0463184CFE
S31517801490A34207D0174CA34204D0174815F067FD0F
S315178014A0012010BD90F8294090F8283043EA04238C
S315178014B090F82A4043EA044390F82B4043EA0463A2
S315178014C00B6090F82D4090F82C3043EA042390F85F
S315178014D02E4043EA044390F82F4043EA046313608F
S315178014E00A68014605484CF023FC0020D9E700BF5F
S315178014F018286F01626F7800197185172D718517F6
S315178015000D4BD3F80431BFF35F8F13F4803F14BFAD
S315178015101022082201239340013BBFF35F8F03609C
S315178015200268BFF35F8F1A40FAD1BFF35F8F024B02
S31517801530C3F83027704700BF0020A0000148FFF787
S31517801540DFBF00BF7C27A0000148FFF7D9BF00BFC8
S31517801550FC27A000084B20F01F00884205D3BFF355
S315178015605F8F0022C3F830277047BFF35F8FC3F8AA
S31517801570F0072030F1E700BF0020A000C20638B57B
S3151780158004460D4607D002460F4910484CF0D0FB4B
S315178015901F3424F01F04EB0606D02A460A490C4846
S315178015A04CF0C6FB25F01F050A4BA54205D8BFF39D
S315178015B05F8F0022C3F8302738BDBFF35F8FC3F81C
S315178015C070472034F1E700BFE1588517DC9F8617EF
S315178015D00FA086170020A000000000000000000062
S315178015E010F0030384463DD141EA012141EA0141C6
S315178015F00B46102A1FDB2DE9004188468E46403A56
S31517801600A1BFACE80A41ACE80A41ACE80A41ACE8AC
S315178016100A41F4DC08BFBDE8008112F0200F1CBF19
S31517801620ACE80A41ACE80A4112F0100F18BFACE8D3
S315178016300A41BDE8004112F0080F18BFACE80A004E
S3151780164012F0040F18BF4CF8041B12F0020F1CBFC0
S315178016500CF8011B0CF8011B12F0010F18BF0CF8C0
S31517801660011B7047043AF0DB022BB8BF0CF8011B3D
S31517801670D8BF0CF8011B0CF8011B1A44B4E700BF3E
S31517801680884208BF70472DE91140043A4BDB10F0AA
S31517801690030C91F800F05AD111F0030C71D11C3A52
S315178016A02DE9E00114DB91F800F0603A91F81CF00F
S315178016B005DB91F83CF091F85CF091F87CF0B1E895
S315178016C0F851203AA0E8F851F7DA12F1600FF6DAF6
S315178016D012F01C0CCCF1200C18BFE74421E0AFF3B5
S315178016E0008051F8043B51F8044B51F8045B51F8CC
S315178016F0046B51F8047B51F8048B51F804EBE744DB
S3151780170000BFAFF3008040F8043B40F8044B40F825
S31517801710045B40F8046B40F8047B40F8048B40F870
S3151780172004EBBDE8E001D20718BF11F8013B24BFCF
S3151780173011F8014B11F801CB18BF00F8013B24BFF4
S3151780174000F8014B00F801CBBDE811407047CCF18A
S31517801750040CBCF1020FC8BF11F8013BA8BF11F8E2
S31517801760014B11F801EBC8BF00F8013BA8BF00F881
S31517801770014BB2EB0C0200F801EBD4DB11F0030C32
S315178017808DD021F00301BCF1020F51F804EB4ED036
S3151780179000F39A801C3A39DB2DE9E00391F800F0C3
S315178017A0603A91F81CF005DB91F83CF091F85CF003
S315178017B091F87CF0F0C94FEA1E23203AB1E800531E
S315178017C043EA04634FEA142444EA05644FEA15256D
S315178017D045EA06654FEA162646EA07664FEA172749
S315178017E047EA08674FEA182848EA09684FEA192925
S315178017F049EA0C694FEA1C2C4CEA0E6CA0E8F813E0
S31517801800D6DA12F1600FD5DABDE8E00312F01C0CB8
S315178018100AD04FEA1E2351F804EBBCF1040C43EAB5
S315178018200E6340F8043BF4DCA1F103017BE71C3A15
S3151780183039DB2DE9E00391F800F0603A91F81CF056
S3151780184005DB91F83CF091F85CF091F87CF0F0C9E3
S315178018504FEA1E43203AB1E8005343EA04434FEA5E
S31517801860144444EA05444FEA154545EA06454FEAC6
S31517801870164646EA07464FEA174747EA08474FEAA2
S31517801880184848EA09484FEA194949EA0C494FEA7C
S315178018901C4C4CEA0E4CA0E8F813D6DA12F1600FFE
S315178018A0D5DABDE8E00312F01C0C0AD04FEA1E43C6
S315178018B051F804EBBCF1040C43EA0E4340F8043BA1
S315178018C0F4DCA1F102012EE71C3A39DB2DE9E0039E
S315178018D091F800F0603A91F81CF005DB91F83CF02E
S315178018E091F85CF091F87CF0F0C94FEA1E63203AC4
S315178018F0B1E8005343EA04234FEA146444EA052403
S315178019004FEA156545EA06254FEA166646EA07261B
S315178019104FEA176747EA08274FEA186848EA0928F7
S315178019204FEA196949EA0C294FEA1C6C4CEA0E2CC6
S31517801930A0E8F813D6DA12F1600FD5DABDE8E0031E
S3151780194012F01C0C0AD04FEA1E6351F804EBBCF157
S31517801950040C43EA0E2340F8043BF4DCA1F10101A1
S31517801960E1E600BF08B5D9F800300E48596B08F084
S3151780197097FA0D48D9F8E81008F092FA0B48D9F873
S31517801980481008F08DFA0A48D9F84C1008F088FAEA
S31517801990BDE808404FF48042D9F8B81005484CF096
S315178019A0C7B900BFAB638517B7638517C06385173C
S315178019B0C7638517D1638517D9F84C200020C9F8D6
S315178019C04820D9F84C20103AC9F84C2070474FF464
S315178019D080436946D9F838204AF05EBC3EF0AEBBE4
S315178019E0D9F84830024A083300201360704700BF81
S315178019F040008017704700207047000008B50148DF
S31517801A004BF048FCCD6485172DE9F0450446A3B005
S31517801A1080224D4902A8FFF733FEA26BE16B4B4834
S31517801A20256C4CF085F9D9F8042005F07046D20755
S31517801A300AD5D9F85010A06BD9F85020E36B821AC3
S31517801A40591A43484CF074F9E36A226B616B414823
S31517801A504CF06EF9236A626AA16A3F484CF068F9BE
S31517801A6023693E4800936369A269E1694CF060F97E
S31517801A7023683B480093E1686368A2684CF058F97D
S31517801A80002EB4BF4E216E2115F0804F14BF5A22F7
S31517801A907A2215F0005F14BF4323632315F0805F06
S31517801AA014BF5620762000902E484CF041F9236CAF
S31517801AB02D4A2E4813F0800F14BF0146114613F096
S31517801AC0400F18BF024622AD03F01F0005EB8000BA
S31517801AD0274D13F0200F274B08BF2B46009350F83E
S31517801AE0803C25484CF024F9276CE56B17F02007C6
S31517801AF016D1082625F0030515E035F81420002C95
S31517801B000CBF4046504631464CF012F9013413E06B
S31517801B10022CF2D1194823B0BDE8F0454CF008B92C
S31517801B20042625F0010516484CF002F96FF00304D8
S31517801B30DFF85080DFF850A0002FE9D1002CE9DCC0
S31517801B4055F82420DBE700BF481D85172A268617F8
S31517801B50242686174C268617702686179426861768
S31517801B60C4268617F426861714208617FF8A8517A4
S31517801B70780C86171126861704278617AE0F8617B1
S31517801B8023278617162686171E268617044608B510
S31517801B9039F06EFA06484CF0CBF8E36B2046043BD7
S31517801BA0E363FFF731FFE06BFFF718FFFFF726FFB9
S31517801BB0B7B58517044608B539F05AFA06484CF072
S31517801BC0B7F8E36B2046043BE363FFF71DFFE06B33
S31517801BD0FFF704FFFFF712FFC2B28517044608B551
S31517801BE039F046FA06484CF0A3F8E36B2046083BD3
S31517801BF0E363FFF709FFE06BFFF7F0FEFFF7FEFEE3
S31517801C00BDB18517044608B539F032FA06484CF047
S31517801C108FF8E36B2046083BE363FFF7F5FEE06B2F
S31517801C20FFF7DCFEFFF7EAFED7948517044608B55B
S31517801C3039F01EFA06484CF07BF8E36B2046083BD2
S31517801C40E363FFF7E1FEE06BFFF7C8FEFFF7D6FE0B
S31517801C509EAF8517044608B539F00AFA06484CF040
S31517801C6067F8E36B2046083BE363FFF7CDFEE06B2F
S31517801C70FFF7B4FEFFF7C2FEEF9C8517044608B53B
S31517801C8039F0F6F906484CF053F8E36B2046083BD3
S31517801C90E363FFF7B9FEE06BFFF7A0FEFFF7AEFE33
S31517801CA0F49C851708B5074815F061F94CF2503042
S31517801CB04BF0D6F9FFF79FFE01F066FA29F086FFFB
S31517801CC0002008BD19B285170144FFF742B90000F5
S31517801CD008B540EA01039B060A4605D00146034824
S31517801CE04CF026F8002008BD0120FCE78671851781
S31517801CF04FF48042C9F8EC20D9F8EC10D9F83C207B
S31517801D000020521AC9F83C20D9F83C20120C12042C
S31517801D10C9F83C20D9F83C20C9F8E8207047FFF766
S31517801D20E7BFD9F8E83041EA005141F4406143F8FA
S31517801D3020107047520802F5FF2202F2FF7202EB5B
S31517801D405002000DF0B44F460546D9F8E840D20C3C
S31517801D5095420BD304EB820104EB8000F0BC3F3134
S31517801D6021F03F0120F03F00FFF70FB941EA030644
S31517801D70D7F8E8C046F440664CF8256001F580111F
S31517801D800135E5E708B5D9F80020D9F80430DB071F
S31517801D900AD502EBC002D06B000D136CD16B1B0DED
S31517801DA003EB1153834200D808BD0E21FFF7B9FF05
S31517801DB00130F2E711EE103F43F4805301EE103FE6
S31517801DC0BFF36F8F704711EE103F11EE103F23F45C
S31517801DD0805301EE103FBFF36F8F704711EE100FD0
S31517801DE0C0F30030704710B511EE104F14F0010490
S31517801DF025D1FFF79DF8204612210134FFF791FF71
S31517801E00B4F5805FF7D10020FFF7BCFF002302EE01
S31517801E10503FD9F8E83023F47F5323F03F0343F03C
S31517801E20590302EE103F4FF0553303EE103F11EE74
S31517801E30103F43F0010301EE103FBFF36F8F11EE92
S31517801E40103F43F0040301EE103FBFF36F8F10BDB1
S31517801E5010B511EE103F5B0709D511EE104FFFF73E
S31517801E6059F824F0050401EE104FBFF36F8F10BD9C
S31517801E7011EE100FC0F38000704713460A460146CD
S31517801E80FFF758BF2DE9F845030E43EA01230446A9
S31517801E900E46C0F30B08C1F3051AC3F30B058F0A59
S31517801EA000F0B4FE000B00F0F00070281AD108F18C
S31517801EB0037808F50038C8F800A02DB105F103732B
S31517801EC003F50033360F1E60BB0309D4C4F30B34F6
S31517801ED034B104F1037404F50034C7F3110727608E
S31517801EE0BDE8F88500F092FEC0F308306528DED08D
S31517801EF000F08CFEC0F308306B28D8D000F086FE31
S31517801F00C0F308306728D2D0B8F1000FCFD1D4E705
S31517801F1070B504460D4600F079FEC0F30830632885
S31517801F2012D000F073FEC0F308306A280CD000F088
S31517801F306DFEC0F30830692806D000F067FEC0F33F
S31517801F400830682818BF08340026AE4204F11004FA
S31517801F5000D170BD54E904010136FFF793FFF4E70A
S31517801F60F0B5800000F1037000F500300568BFF307
S31517801F705F8F00240127944205D18B402B43BFF3F3
S31517801F805F8F0360F0BD661807FA06F625EA060521
S31517801F900134F0E7064B1A68013207D1054A916872
S31517801FA0BFF35F8F1960BFF35F8F916018687047B3
S31517801FB008B7861700800D025138B0F59C7F9ABFF7
S31517801FC0024B53F820000248704700BF581F8517E9
S31517801FD0DBA6851730B585B000F018FE0246C0F32C
S31517801FE00830FFF7E9FF02F00F030146C2F3031229
S31517801FF045484BF09DFE00F057FE444C0546B8B950
S31517802000002001F053FEA0FB04014148890C4BF0D8
S315178020108FFE404814F0ABFF03A902A800F0BEFE5E
S31517802020022846D0032815D0012844D13A4812E011
S31517802030002001F03BFEA842E2D0002001F036FED8
S31517802040A5FB0451A0FB0402890C920C33484BF074
S315178020506FFEDEE7324814F08AFFDDE90212314857
S315178020604BF066FE6A4600216C2019F0EBFD40B9ED
S31517802070009801A929F0B8FD18B901992A484BF09B
S3151780208057FE2A4814F073FFFFF784FF20282FD0B6
S315178020901BD808282ED010D801282DD02449254B97
S315178020A0042808BF194624484BF042FE002005B085
S315178020B030BD2248CFE72248CDE710281ED01C49CD
S315178020C0204B112808BF1946EDE7B0F5807F17D04A
S315178020D007D8402816D016491B4B802808BF1946A3
S315178020E0E1E71349194BB0F5803F08BF1946DAE780
S315178020F01749D8E71749D6E71249D4E71649D2E7D9
S315178021001649D0E71649CEE73A18861783DE1B435A
S315178021105B18861783188617C71886176618861743
S315178021208B188617EE188617FB188617AE0F861725
S315178021302C188617EC17861703198617A91886176A
S31517802140D0188617E8178617121886172218861733
S31517802150FE178617F0178617F91786171818861712
S315178021600A18861710B5054B5C6901F009FBC4F38D
S31517802170822101314FF074EA10BD00BF00400C0276
S3151780218027F066BC10B50A204C4601F08FFDC4F8BF
S31517802190C800002010BD000010B5104B1A68BFF399
S315178021A05F8F9869BFF35F8F0D4CC2F30251615CE5
S315178021B0C2F302630C331944C2F30143C2F380722C
S315178021C01344C0F340120748825C0A441344202BF9
S315178021D016BF01204FF07040984010BD00001B02BB
S315178021E043738517E06485174FF40042514B10B53A
S315178021F000211A606422013A1960FCD11C6800F02C
S3151780220005FDC0F30830632824F4E07413D100F079
S31517802210FDFCC0B2102814D900F0F8FCC0F30830C2
S31517802220662856D14FF4E041424A44F4A86444F0F4
S315178022300104516044E000F0E9FCC0F308306A28D5
S31517802240E5D000F0E3FCC0F308306928E4D000F04D
S31517802250DDFCC0F308306828DED000F0D7FCC0F369
S3151780226008306628D8D000F0D1FCC0F30830612832
S31517802270D2D000F0CBFCC0F308306228CCD000F067
S31517802280C5FCC0F308306428C6D000F0BFFCC0F385
S3151780229008306528C0D000F0B9FCC0F308306B2829
S315178022A0BAD000F0B3FCC0F308306728B4D000F07A
S315178022B0ADFC000B00F0F0007028ADD044F041045F
S315178022C000201C4A1460526AC9F8D420C9F8D00075
S315178022D010BD00F09BFCC0F308306128A2D000F037
S315178022E095FCC0F3083062289CD000F08FFCC0F3B1
S315178022F00830642896D000F089FCC0F3083065282A
S3151780230090D000F083FCC0F308306B288AD000F099
S315178023107DFCC0F30830672884D000F077FC000B6B
S3151780232000F0F00070283FF47DAF44F4A07444F0B9
S315178023300104C5E700800902014B586A704700BF40
S315178023400080090208B500F061FCC0F308306328E5
S3151780235006D100F05BFCC0B2102807D9244808BD07
S3151780236000F054FCC0F308306A28F2D000F04EFC17
S31517802370C0F308306928F1D000F048FCC0F3083064
S315178023806828EBD000F042FCC0F308306628E5D009
S3151780239000F03CFCC0F308306128DFD000F036FC33
S315178023A0C0F308306228D9D000F030FCC0F308306B
S315178023B06428D3D000F02AFCC0F308306528CDD026
S315178023C000F024FCC0F308306B28C7D000F01EFC41
S315178023D0C0F308306728C1D000F018FC000B00F056
S315178023E0F0007028BAD0BDE80840042001F05EBC22
S315178023F0C0C62D00F7B5044690F828001AF09CFE43
S31517802400207C1AF099FED4E90801FFF73BFDD4E941
S315178024100201FFF737FD94F828001AF021FF0546C9
S31517802420207C1AF01DFF05EA0002012A03460BD10C
S315178024300025D4E90601FFF725FDD4E90001FFF74A
S3151780244021FD284603B0F0BD227C1C49019294F8E1
S3151780245028201B4800922A464BF06AFC0925002142
S31517802460207C1AF077FE32204AF0FAFD207C1AF08B
S3151780247063FE32204AF0F4FD013DF0D128464AF03A
S315178024809CFD074694F828001AF0EAFE0546207C3C
S315178024901AF0E6FE05EA0003012B0646C8D0384631
S315178024A04AF08BFDC828EDD92A4633460349054895
S315178024B04BF03EFC6FF00F05BBE700BFFC58851746
S315178024C077E58517A2E585172DE9F0410328064696
S315178024D00F4690461D4686B036D8034609211C4AB4
S315178024E003A84BF0F2FB95F8280003A91AF05CFDB8
S315178024F00446E8B933460921164A03A84BF0E5FB8B
S31517802500287C03A91AF050FD0446C0B9314601202C
S3151780251001F0ECF8044678B92846FFF76BFF0446B6
S3151780252050B94246394630460B4B00951BF0CAFBCD
S31517802530204606B0BDE8F081287C1AF062FD95F832
S3151780254028001AF05EFDF3E76FF01504F0E700BF79
S31517802550F3248617FF248617F5238017034B1879DC
S31517802560C0B2BFF35F8F00F0F200704700301200E1
S315178025702DE9F041344830F04BF8344E044637464F
S31517802580DFF8CC8060B10025D8F80030AB421FD970
S31517802590B96920464AF0B3FB5037C8B10135F3E71E
S315178025A00546D8F80030AB420CD93B69002B3BD097
S315178025B038469847002837D0BC69264821464BF0BD
S315178025C0B7FB2CB9B469244821464BF0B1FB0025DB
S315178025D0D8F800309D4230D2502068433718F968B2
S315178025E01830003918BF0121BA68304427F052FADB
S315178025F00446E0B97B690BB138469847502303FBED
S315178026000566B569736A2946326A14484BF090FB9A
S31517802610284613494AF073FB054610B900F018FE91
S315178026202C462046BDE8F08101355037B9E702467A
S31517802630B9690C484BF07CFBF3E721460A484BF007
S3151780264077FB6FF01504ECE7B48E8617C82A8517C3
S3151780265010B786177A67851792678517B4678517B0
S31517802660C9678517CE678517EF678517FFF780BF09
S3151780267010EE103FC3F30313072B0BD111EE303F28
S315178026805A0607D443F0400301EE303FBFF34F8F0E
S31517802690BFF36F8F7047000008B5FEF742FCFFF750
S315178026A0E7FFFFF7A0FB0E2200200649FFF7E5FBA1
S315178026B0BDE808400E224FF480214FF41000FFF733
S315178026C0DCBB00BFFFFF0F0008B52C4BD3F80021EA
S315178026D022F00102C3F80021D3F8042142F48002C4
S315178026E0C3F8042100F092FAC0F30830602838D175
S315178026F0234AD36ABFF35F8F990739D4BFF35F8FA6
S315178027004FF499731D4AC2F80831BFF35F8FC2F829
S315178027100C31D2F8603FBFF35F8F1168BFF35F8FBD
S3151780272001F47E71C0290ABF23F0804343F0E0434A
S3151780273043F0405343F00F03BFF35F8FC2F8603FF8
S31517802740D2F8803FBFF35F8F43F00303BFF35F8FEA
S31517802750C2F8803FD2F8003143F00103C2F8003146
S3151780276008BD00F053FAC0F308306728C6D1BFE713
S3151780277023F00203BFF35F8FD362BFE70020A00069
S3151780278000000E02034AD2F8003123F00103C2F883
S31517802790003170470020A00008B5BFF35F8F4FF058
S315178027A077332F490B60BFF35F8F4B60BFF35F8F14
S315178027B02C4A1360BFF35F8F5360BFF35F8F00237D
S315178027C00B64BFF35F8F4B64BFF35F8F8B64BFF36D
S315178027D05F8FCB64BFF35F8F0B65BFF35F8F136418
S315178027E0BFF35F8F5364BFF35F8F9364BFF35F8FBE
S315178027F0D364BFF35F8F136500F008FAC0F3083010
S31517802800652819D1BFF35F8F4FF07732164B1A6051
S31517802810BFF35F8F5A60BFF35F8F00221A64BFF3CF
S315178028205F8F5A64BFF35F8F9A64BFF35F8FDA64E3
S31517802830BFF35F8F1A6508BD00F0E8F9C0F308305B
S315178028406B28DFD000F0E2F9C0F308306228D9D0C0
S3151780285000F0DCF9000B00F0F0007028EBD1D1E71F
S3151780286000C0070200C0170200C0270210B500F08B
S31517802870CDF9C0F3083064280BD000F0C7F9C0F340
S315178028800830652805D000F0C1F9C0F308306B28E9
S3151780289015D1194CBFF35F8F0023184A1381BFF3E5
S315178028A05F8F4FF00372138100F0B0F9C0F30830D1
S315178028B0622806D1BFF35F8F0023238110BD104C8A
S315178028C0E8E700F0A3F9C0F308306428F2D000F0E7
S315178028D09DF9C0F308306528ECD000F097F9C0F35E
S315178028E008306B28E6D000F091F9000B00F0F00065
S315178028F07028E3D1DEE700BF00401E0200C00B023E
S3151780290000802802044A1368BFF35F8F23F0010300
S31517802910BFF35F8F1360704700800D0210F1100FA1
S315178029200E4B04D15A6C22F080425A647047421C6F
S3151780293003D15A6C42F08042F7E7BFF35F8F186472
S315178029405B6CBFF35F8F30B143F08053BFF35F8FFC
S31517802950024A5364704723F08053F7E700800D02CD
S31517802960054B5A6CBFF35F8FD2004CBF186C5868F3
S31517802970BFF35F8F704700BF00800D0270B50C469E
S31517802980064600F043F9030B03F0F003602B0CBFE8
S315178029904FF4C4654FF4C86500F038F9030B03F09C
S315178029A0F00305F10675702B05F5703514D1012ED8
S315178029B050D12B6ABFF35F8F1A0E22701A0C627072
S315178029C01A0AA270E3702B69BFF35F8F1A0EC3F3CF
S315178029D007432271637170BD00F018F9C0F3083090
S315178029E06228E4D000F012F9C0F308306428DED0EC
S315178029F000F00CF9C0F308306528D8D000F006F936
S31517802A00C0F308306B28D2D000F000F940F2851356
S31517802A10C0F308309842CAD000F0F8F8C0F30830EF
S31517802A20B0F5C47FC3D000F0F1F840F28713C0F336
S31517802A3008309842BBD000F0E9F8C0F30830B0F5FB
S31517802A40C37FB4D000F0E2F840F28913C0F30830A0
S31517802A509842ACD02B69BFF35F8F1A0A22706370C6
S31517802A602B68BFF35F8F1A0EA2701A0CE270C3F32E
S31517802A700722DBB2ADE700002DE9F04D04460027AB
S31517802A804FF07C0ADFF854B00BF108085BF8045B4B
S31517802A9015B12868083588B9C345F7D154B1013CB3
S31517802AA00B220F492046FEF7EBFD132220460D49D0
S31517802AB0FEF7E6FD07F11C00BDE8F08D4AF048F9F0
S31517802AC0064644B1024655F8081C20463444FEF79C
S31517802AD0D7FD04F801AB01363744DAE784D5871773
S31517802AE0EF738517FA73851700207047012A2DE92A
S31517802AF0F04116461C4604DC4FF0FF342046BDE8ED
S31517802B00F0811F4958684AF0FAF818B9BDE8F041BC
S31517802B10FFF7EABFDFF86C806768D8F800503DB1D9
S31517802B20286828B139464AF0EAF828B30835F7E70E
S31517802B30D8F80450002DDFD028680028DCD0394615
S31517802B404AF0DDF8C0B10835F6E7A0680E494AF0B5
S31517802B50D6F804460028CFD16868FFF7DFFE002C29
S31517802B60CCD06C68002CC9D000231A461946184653
S31517802B70FFF798F80024C1E7032EE6D00124EBE788
S31517802B800374851784D587173E8C851738B50B4DF3
S31517802B900446286918B114F065FC00232B61084B8D
S31517802BA0084A1C605A600020FFF766FF14F00CFD78
S31517802BB0044610B1FFF760FF2C6138BDC4B687177E
S31517802BC084D58717B43D8517054B1B79DBB2BFF3C1
S31517802BD05F8F13F0F20F0CBF01200020704700BFE4
S31517802BE00030120008B5FFF7BBFEC0F38113012B27
S31517802BF014BF4FF0FF30C0F3C12008BD4FF4200338
S31517802C005868BFF35F8F00F003007047244AD2F8E5
S31517802C108002BFF35F8FC0F30743602B3ED0D2F895
S31517802C206002BFF35F8F4FF420035A68BFF35F8F3D
S31517802C30C0F30743612B02F003021ED1002A08BF97
S31517802C40662310F47F4FC0F3072108D0632B01D07A
S31517802C506A2B04D1012A14BF692368230139632B90
S31517802C60C0B201D06A2B02D1052808BF03200131D3
S31517802C7000EB011040EA03307047632B03D1012A1A
S31517802C8008BF6A23DDE7652BDBD10649C969BFF320
S31517802C905F8F11F0400F18BF6B23D2E70022D0E762
S31517802CA000800C0200800D0210B5344BD3F84044D7
S31517802CB0BFF35F8FFFF7AAFFC0F308306428C4F30A
S31517802CC0014407D1012C01D12D4810BD022C51D0BA
S31517802CD00020FAE7FFF79AFFC0F30830652805D179
S31517802CE0012CF1D0022C27D12648EEE7FFF78EFF6D
S31517802CF0C0F308306B28F3D0022C3DD0032C1FD09D
S31517802D00012CF1D1FFF782FFC0F30830632811D069
S31517802D10FFF77CFFC0F308306A280BD0FFF776FFE2
S31517802D20C0F30830692805D0FFF770FFC0F3083065
S31517802D306828D9D11448C8E7032CC9D11348C4E7E2
S31517802D40FFF764FFC0F30830632811D0FFF75EFFE3
S31517802D50C0F308306A280BD0FFF758FFC0F3083046
S31517802D60692805D0FFF752FFC0F30830682803D1CA
S31517802D700748AAE70748A8E70748A6E700C01B023F
S31517802D8000A4781F00F6342F007DC83200E9A435D9
S31517802D90008C8647001E7C2900C15D3B104A03467E
S31517802DA0D2F88004BFF35F8FC0F381103BB131B186
S31517802DB0032805D16FF027021A607D230B607047B1
S31517802DC0022804D16FF027021A606923F6E70128D3
S31517802DD002D16FF01302F7E700221A605F23EDE73F
S31517802DE000C01B0270B5254B06460C46D3F84051DA
S31517802DF0BFF35F8FFFF70AFFC0F30830672801D14B
S31517802E00002070BDB4F5357F31D940F2AA539C4264
S31517802E102FD81B4BA4F52F74A4FB0343DB08174C41
S31517802E20D4F87021BFF35F8F22F07C52BFF35F8F88
S31517802E30022EC4F870211ED81F20124A925D904028
S31517802E4000EA0501D1408B42DAD025EA000503FA5C
S31517802E5002F21543BFF35F8F581A0028B8BF404256
S31517802E60C4F8405100EB40004AF0FAF8C8E700234F
S31517802E70D5E71F23D3E76FF01500C2E700800C0252
S31517802E801F85EB515358851710B5FFF785FCA24B55
S31517802E905C68BFF35F8FFFF7B9FEC0F3083062280F
S31517802EA040F0D48024F48034BFF35F8F9A4B5C60F4
S31517802EB003F58043D3F85021BFF35F8F1206F9D5F8
S31517802EC0BFF35F8F0822C3F85421FFF79FFEC0F325
S31517802ED00830652840F0E080904BD3F88034BFF3F4
S31517802EE05F8F8F4AC3F3022352F823301B01BFF338
S31517802EF05F8F8C4AC2F85431FFF788FEC0F30830CB
S31517802F00642823D0FFF782FEC0F3083065281DD0CA
S31517802F10FFF77CFEC0F308306B2817D0002000F02F
S31517802F20C5FE814B984211D100F02AFC7A494A692D
S31517802F30BFF35F8F7D4B22F4E052A0FB03031B0D7B
S31517802F40013B42EA8323BFF35F8F4B61FFF75EFE38
S31517802F50C0F3083064280CD1FFF758FEC0B210288A
S31517802F6000F0A280BFF35F8F4BF6A002704BC3F8B9
S31517802F709C22FFF74BFEC0F30830652840F0A080EF
S31517802F806C4A1368BFF35F8F43F00303BFF35F8FFA
S31517802F901360FFF73BFEC0F30830602840F0988037
S31517802FA05D4AD36943F04003D361FFF75FFCFFF7B0
S31517802FB02DFEC0F30830622801BF574A536A43F083
S31517802FC040035362FFF79EFCFFF720FEC0F30830DD
S31517802FD0692840F09A8000F0B3FEBFF35F8F4FF4F5
S31517802FE03B03554AC3F80826BFF35F8F0222C3F8FF
S31517802FF08C24BFF35F8FC3F80C25BFF35F8F4FF415
S315178030000072C3F89026BFF35F8FC3F81027BFF3FC
S315178030105F8FC3F89027BFF35F8FC3F81028BFF36E
S315178030205F8F1022C3F89426BFF35F8FC3F81427D8
S31517803030BFF35F8FC3F89427BFF35F8FC3F8142846
S3151780304000F09EFEFFF714FB002010BDFFF7DEFD94
S31517803050C0F3083064283FF425AFFFF7D7FDC0F3D8
S31517803060083065283FF41EAFFFF7D0FDC0F3083050
S315178030706B283FF417AFFFF7C9FDC0F308306028F8
S315178030803FF410AFFFF7C2FDC0F3083067283FF44F
S3151780309009AF24F4403407E7FFF7B8FDC0F30830CB
S315178030A06B287FF429AF17E7224A1369BFF35F8F1F
S315178030B023F4A05343F48063BFF35F8F136158E7FC
S315178030C0FFF7A4FDC0F308306B287FF462AF57E78C
S315178030D0FFF79CFDC0F3083061283FF461AFFFF717
S315178030E095FDC0F3083066283FF45AAFFFF78EFD7B
S315178030F0C0F3083065283FF453AFFFF787FDC0F359
S3151780310008306B287FF451AF4AE7FFF77FFDC0F38E
S315178031100830682896D15EE700400C0200C01B0273
S31517803120F834851700800C02007B9A17239A0802B9
S3151780313000000E0200000B020102008008B5FFF79F
S3151780314051FD002803DBBDE8084000F074BF01205D
S3151780315008BD0020704708B5FFF744FD002803DB3C
S31517803160BDE80840FFF7F5BF002008BD08B5FFF793
S315178031704DFDC0F30830672804D040F297410120EF
S31517803180FFF730FE002008BD7047000008B5FFF72F
S315178031903DFDC0F3083062283FD0FFF737FDC0F3F7
S315178031A00830642839D0FFF731FDC0F30830652819
S315178031B033D0FFF72BFDC0F308306B282DD0FFF7E0
S315178031C025FDC0F30830672827D01E4B9A69BFF3B1
S315178031D05F8FC2F34153022BC2F3814223D0022A57
S315178031E026D0012B1DD0012A1BD0032B164B01D0BD
S315178031F0032A23D1BFF35F8F4FF08031134AC2F86A
S31517803200F410BFF35F8FC2F80431BFF35F8FC2F834
S31517803210F810BFF35F8FC2F8083108BD4FF08023CF
S31517803220E6E7094BE6E7012AF8D14FF08023E1E775
S31517803230012BFAD0032BF8D04FF0802343F40003E9
S31517803240D8E700BF00400C028080008000800C0207
S3151780325038B5114D2C78E4B2BFF35F8F44F08003F5
S31517803260BFF35F8F40F6B8302B7049F0F9FE44F004
S31517803270C003BFF35F8F40F6B8302B7049F0F0FE6E
S3151780328044F0C804BFF35F8F2C70BFF35F8F4FF482
S31517803290921300225A7138BD003012001D4A136FDF
S315178032A0BFF35F8F43F03303BFF35F8F1367BFF3AC
S315178032B05F8F4FF4921101234B71536BBFF35F8F5F
S315178032C023F4FF7323F0010343F4A873BFF35F8FCF
S315178032D05363114B9B78DBB2BFF35F8F9B0717D076
S315178032E0BFF35F8FFD230D4A8B701378DBB2BFF365
S315178032F05F8FBFF35F8F1370BFF35F8F1370BFF34B
S315178033005F8F1370BFF35F8F1370BFF35F8F137069
S31517803310704700BF00400C02000112000010120017
S3151780332000B589B00F493E2003AA18F060FC014604
S3151780333010B10D484AF0FCFC0C482FF069F960B9BA
S315178033400B4B11211A6A03A800921B69094A4AF086
S31517803350BCFC064803A90FF049FB002009B05DF8AD
S3151780336004FB00BF24C38717786385179A6385176D
S3151780337000C41B02A263851710B5054B1B685C69D1
S31517803380FEF7F0FEC4F3012101314EF06AE910BD54
S315178033900CB7861710B51F4B1B68DC69FFF736FC11
S315178033A0C0F30830672803D163062BD51A4830E057
S315178033B0FFF72CFCC0F308306028F5D0FFF726FC02
S315178033C0C0F308306228EFD0FFF720FCC0F308302F
S315178033D06928E9D0FFF71AFCC0F308306828E3D0CC
S315178033E0FFF714FCC0F308306428DDD0FFF70EFC16
S315178033F0C0F308306528D7D0FFF708FCC0F308302C
S315178034006B28D1D0FFF7B8FF04F03F0101314EF09A
S3151780341028E910BD0CB7861700366E0108B5084B1C
S315178034201B68196903F580431868064B00F07F00FF
S31517803430584301F00701013140084EF012E908BDE3
S315178034400CB7861700366E01022837B50C461D4D08
S315178034502DD0FFF7DBFBC0F30830642807D0FFF7C2
S31517803460D5FBC0F30830652801D0FFF7CFFB2B6853
S3151780347003F58043D3F800211B6B5B0003F002032F
S31517803480114914334B43E10012240025A3FB043062
S3151780349004FB0500CDE900303F238B401340684677
S315178034A023FA01F148F0D6FC009803B030BD2B689B
S315178034B003F58043D3F8F0201B695B0003F00603FE
S315178034C0DEE700BF0CB7861700366E0170B5244B42
S315178034D006461B68DC695D6AFFF798FBC0F3083000
S315178034E0642803D1012E0DD9002070BDFFF78EFBFE
S315178034F0C0F308306528F5D0FFF788FBC0F308308E
S315178035006B28EFD0FFF782FBC0F30830672808D106
S31517803510032EE9D0022E08D1C5F3C24504F48024C0
S315178035200DE0022EF8D0032E12D0012E19BFC5F347
S31517803530C22504F48034C5F3024504F4003464B11B
S3151780354000210120FFF780FF691C4EF08AE8CCE73F
S31517803550C5F3825504F40024F1E70221F1E700BF91
S315178035600CB7861738B5274B27491A68274C02F5A3
S3151780357080431B69556A5B0003F0060314334B437C
S31517803580A3FB0434FFF742FBC0F3083060284FEAE9
S3151780359094040BD11C4B15F0400F18BF1C4605F031
S315178035A03F01204601314EF05CE838BDFFF72EFB10
S315178035B0C0F308306228EDD0FFF728FBC0F3083038
S315178035C06928E7D0FFF722FBC0F308306828E1D0D7
S315178035D0FFF71CFBC0F308306428DBD0FFF716FB18
S315178035E0C0F308306728D5D0FFF710FBC0F3083033
S315178035F06528CFD0FFF70AFBC0F308306B28CED1EA
S31517803600C8E700BF0CB7861700366E01ABAAAAAA01
S3151780361070B5254D2B689E6BFFF7F8FAC0F3083007
S31517803620C6F3C544692804F1010406D173032ED560
S3151780363021461E484EF014E870BDFFF7E7FAC0F32F
S3151780364008306828F2D0FFF7E1FAC0F3083060280F
S31517803650ECD0FFF7DBFAC0F308306228E6D0FFF725
S31517803660D5FAC0F308306428E0D0FFF7CFFAC0F355
S3151780367008306728DAD0FFF7C9FAC0F3083065280B
S31517803680D4D0FFF7C3FAC0F308306B28CED02B6897
S31517803690064803F580431B69E1005B0003F00603C8
S315178036A014335843C6E700BF0CB7861700366E012A
S315178036B0054B1A68136F18B143F440531367704755
S315178036C023F44053FAE700BF0CB78617064B1A68E0
S315178036D0D2F8803020B143F00303C2F880307047A8
S315178036E023F00303F9E700BF0CB78617032938B50C
S315178036F0044602D96FF0150038BD0ED003221F4B32
S31517803700490006318A4019680B6F18B113430B6746
S315178037100020F1E723EA0203F9E7FFF777FAC0F308
S3151780372008306728E6D0FFF771FAC0F308306228A9
S31517803730124D08D14FF040712B6880331A68CCB17F
S315178037400A431A60E4E7FFF761FAC0F30830642882
S31517803750F0D0FFF75BFAC0F308306528EAD0FFF799
S3151780376055FAC0F308306B28E4D02B684FF44071B4
S315178037706C33E3E722EA0102E3E700BF0CB786174B
S3151780378010B51E4B1B685A6912F0007419D0C2F314
S31517803790C2649A6912F4405FC2F3013107D00329D4
S315178037A0174808BF0020611C4DF05AEF10BD03F56E
S315178037B080431869400000F00600114B14305843B7
S315178037C0F1E79869C0F3814002280ED003280FD0FD
S315178037D0012806D003F58043186B400000F00200DD
S315178037E0EBE70221FFF730FEDDE721460120F9E7F7
S315178037F002210120FFF728FE4008D4E70CB7861769
S3151780380000366E0110B50B4B1B685B695A06C3F3FE
S3151780381002440BD51B0647BF012102200221012036
S31517803820FFF712FE611C4DF01CEF10BDFFF7A8FFC6
S31517803830F8E700BF0CB7861710B5114B1B68DC6904
S31517803840C4F341710229C4F3C25414D0032911D089
S31517803850012905D0FFF7D6FF611C4DF002EF10BD89
S3151780386003F580431869074B400000F006001430B3
S315178038705843F1E700210120FFF7E6FDECE700BF8B
S315178038800CB7861700366E012DE9F0415A4F3B6803
S31517803890D3F818805E69FFF7B9F9C0F30830622844
S315178038A018D116F08064C6F3C2054AD0FFF7AEF971
S315178038B0C0F30833602B514806F0070408F48012CA
S315178038C02CD1B2BB3B6803F580431B695B0003F0C1
S315178038D006032CE0FFF79AF9C0F308306428E0D086
S315178038E0FFF794F9C0F308306528DAD0FFF78EF919
S315178038F0C0F308306B28D4D0FFF788F9C0F30830A7
S315178039006028CED0FFF782F9C0F308306728C8D071
S31517803910FFF736FFC6F3C24101310EE03B6803F568
S315178039208043002AD1D01B6B5B0003F0020314334C
S315178039305843691C4DF094EE611C4DF092EEBDE82C
S31517803940F081C8F34150022811D0032812D00128DC
S3151780395009D03B6803F58043186B284B400000F06D
S3151780396002001430E4E70221FFF76EFDE1E72146F6
S315178039700120F9E7FFF74AF9C0F30830602805D127
S3151780398002210120FFF760FD4008D2E73A6802F569
S315178039908042D2F87031D2F870119B0D03F0020372
S315178039A0C1F3C0310B43012B21D0032B14BF012741
S315178039B00427136F13F4005015D013F4803018D1E1
S315178039C0C3F3C146032ED2F880C003F07F08D2F81E
S315178039D0901008D060464DF044EE084B404458434B
S315178039E0C6F10206F04039464DF03AEEA1E70227B6
S315178039F0DFE70248F7E700BF0CB7861700366E0178
S31517803A0070B55A4D5A4E2B685A4C03F58043196830
S31517803A10594801F07F0171434908A1FB0431890C8C
S31517803A204AF086F92B68554803F58043196B490088
S31517803A3001F0020114317143A1FB0431890C4AF05C
S31517803A4077F92B684E4803F580431B695B0003F0B3
S31517803A50060314337343A3FB0431890C4AF068F9C0
S31517803A602B68484803F58043D3F8E03003F0030208
S31517803A70C3F340031A44444B02FB0333A3FB0431BD
S31517803A80890C4AF055F941484AF052F9FFF7C6FCB6
S31517803A903F4CA0FB04013F4889094AF049F9FFF7D3
S31517803AA06BFCA0FB04013C4889094AF041F9FFF7F2
S31517803AB059FDA0FB0401394889094AF039F9FFF7FE
S31517803AC0A7FDA0FB0401364889094AF031F9FEF7AC
S31517803AD049FBA0FB0401334889094AF029F9FFF706
S31517803AE091FEA0FB0401304889094AF021F9FFF7B6
S31517803AF0CBFEA0FB04012D4889094AF019F900204D
S31517803B00FFF7E4FCA0FB0401294889094AF010F95C
S31517803B100120FFF7DBFCA0FB0401264889094AF040
S31517803B2007F90220FFF7D2FCA0FB04012248890976
S31517803B304AF0FEF80320FFF7C9FCA0FB04011F48D3
S31517803B4089094AF0F5F8FFF777FEA0FB04011C48B0
S31517803B5089094AF0EDF8FFF71DFCA0FB0401194807
S31517803B6089094AF0E5F8002070BD00BF0CB78617A3
S31517803B7000366E0183DE1B4337AE85174BAE85172E
S31517803B805FAE851773AE851740787D01AE0F8617A2
S31517803B90D34D621087AE85179BAE8517AFAE851747
S31517803BA0C3AE8517D7AE8517EBAE8517FFAE8517CC
S31517803BB013AF851727AF85173BAF85174FAF851778
S31517803BC063AF851777AF8517FFF7CCBCFFF7D4BBE5
S31517803BD008B5FFF71BF8C0F3083062280CBF0A2117
S31517803BE00B211E4AD2F8603123F4805323F01F032A
S31517803BF00B4343F48063C2F86031194B996921F4FA
S31517803C0080619961996F41F003019967D2F8E03025
S31517803C10BFF35F8F23F48051BFF35F8FC2F8E01035
S31517803C201049013902D26FF0040008BDD2F8E000BE
S31517803C30BFF35F8F0028F4DA0029F4D023F4883392
S31517803C4043F40051BFF35F8FC2F8E01043F4C113FA
S31517803C50BFF35F8F0020C2F8E030E6E700800C02E2
S31517803C6000400C02A08601000F4B1A69BFF35F8FC5
S31517803C70002A18DBBFF35F8F4FF480525A61BFF368
S31517803C805F8F8022C3F878211A69BFF35F8F002A66
S31517803C90FADABFF35F8F4FF480329A61BFF35F8F83
S31517803CA04FF400525A61704700800C02014608B5DE
S31517803CB010283DD8DFE800F0090D1115191D2125AB
S31517803CC0292D3136383A113C1900BDE80840FFF7DF
S31517803CD0A5BBBDE80840FFF753BDBDE80840FEF712
S31517803CE041BABDE80840FFF747BBBDE80840FFF774
S31517803CF051BBBDE80840FFF735BCBDE80840FFF764
S31517803D0087BCBDE80840FFF77DBDBDE80840FFF7D3
S31517803D1093BDBDE80840FFF7B7BD0020BDE8084052
S31517803D20FFF7D4BB0120F9E70220F7E70320F5E771
S31517803D30024849F0FDFF002008BD00BF9B08861783
S31517803D4010B50E4C636F43F003036367FEF75EFF90
S31517803D50C0F3083069280AD1D4F8803043F040730D
S31517803D60C4F88030636F43F0C003636710BDFEF7F6
S31517803D704DFFC0F308306828F8D1EDE700400C02F4
S31517803D8010B50E4C636F23F003036367FEF73EFF90
S31517803D90C0F3083069280AD1D4F8803023F04073ED
S31517803DA0C4F88030636F23F0C003636710BDFEF7D6
S31517803DB02DFFC0F308306828F8D1EDE700400C02D4
S31517803DC0044A0549136851F8201000200B431360E5
S31517803DD0704700BF00800D020829851708B5074B65
S31517803DE001461A68064B53F8203006481A4214BF04
S31517803DF00122002249F09CFF002008BD00800D0299
S31517803E00F8288517DB73851710B5044600211068C7
S31517803E104AF015F8022C0ED0032C0FD0012C10D196
S31517803E20094B98620020084A0849136851F82410EC
S31517803E300B43136010BD044B1863F3E7024B98636B
S31517803E40F0E70120F6E700BF00800D02F8288517F6
S31517803E5010B50446FEF7D2FEA04234BF00200120DB
S31517803E6010BD0000044A054B53F820101368002034
S31517803E7023EA01031360704700800D02F82885171F
S31517803E802DE9F34D0E4601AA0021054621F070FB58
S31517803E90019901F00F01019151B1012916D01A48E4
S31517803EA049F046FF6FF01504204602B0BDE8F08D45
S31517803EB04FF00608312732462321284621F014FB76
S31517803EC0041E07DA114849F033FFEDE74FF004086F
S31517803ED03827F0E74FF0000A08F1FF385FFA8AF3C0
S31517803EE04345E1DAC3EBC30303EB070B3246594667
S31517803EF0284621F0F9FA041E0AF1010AEEDA594624
S31517803F00034849F015FFCFE7081686171E1686173A
S31517803F103516861713B520F08BFF18B10024204667
S31517803F2002B010BD264821F0D1F9044621F06EFB68
S31517803F3001460028F2D101AA204621F019FB0199E2
S31517803F40204849F0F5FE01AA2121204621F010FBD1
S31517803F50019A212122F03F0242F01B02204601924C
S31517803F6021F0C2FA01AA2421204621F001FB019AE9
S31517803F70242122F0C00242F040022046019221F00D
S31517803F80B3FA01AA2F21204621F0F2FA019A2F219E
S31517803F9022F03F0242F01B022046019221F0A4FA3A
S31517803FA001AA3221204621F0E3FA019A322122F022
S31517803FB0C00242F040022046019221F095FAAEE700
S31517803FC0E4158617ED15861708B501210648FDF7FE
S31517803FD09FFF0649152018F0E7FFBDE80840012125
S31517803FE0152019F0B7B800BF28188517EAC58517A1
S31517803FF008B51D210348FDF78BFFBDE808404DF036
S3151780400007BC00BF281B8517FFF7DEBF054A9368D5
S31517804010BFF35F8F23F00F03BFF35F8F9360FFF7B5
S3151780402017B900BF00000E0210B54C46FEF7B4F85C
S315178040302064002010BD0138704710B50446072349
S315178040400D224FF0FF311EF0B8FC48F216030E22F0
S315178040504FF0FF3120461EF0B0FC44F207030D22C5
S315178040604FF0FF3120461EF0A8FC0E224FF0FF318D
S3151780407020461EF0A9FB4FF6E37303400E224FF03E
S31517804080FF3143F0180320461EF097FC05231D22A7
S315178040904FF0FF3120461EF090FC1E224FF0FF3165
S315178040A020461EF091FB83B243F480731E224FF095
S315178040B0FF3120461EF081FC63689B690BB1204651
S315178040C09847002010BD01207047000008B50221CF
S315178040D00248FDF71DFF002008BD00BF281D851764
S315178040E008B5364AD9F80030042135489A63FDF762
S315178040F00FFFFEF78BFDC0F30830632849D1314B8C
S315178041007F2231490120FEF7DFF903212F48FDF77A
S31517804110FFFEFFF715FEFFF7C1F82D4B5A6FBFF35A
S315178041205F8F42F47042BFF35F8F5A67DA6ABFF3C5
S315178041305F8F22F4FC4242F45852BFF35F8FDA62E4
S315178041401A6ABFF35F8F42F44062BFF35F8F1A62BA
S315178041505A6BBFF35F8F42F4C06242F00302BFF31C
S315178041605F8F5A63BFF35F8F40F2046203F5E033C4
S315178041709A60DA68BFF35F8F22F44372BFF35F8F5B
S31517804180DA600122002310460D21FDF7E9FE002093
S3151780419008BDFEF73BFDC0F308306A28AFD0FEF79F
S315178041A035FDC0F308306928A9D0FEF72FFDC0F377
S315178041B008306828A3D0074BA2E700BF000100107C
S315178041C06818851748B78617A08601003818851787
S315178041D000400C0218B7861713B50120FFF79AFE11
S315178041E0044628B30C21FFF74BFE00281EDB6E21F1
S315178041F001AA204621F0BCF9019A6E2122F00F02FE
S3151780420042F00A022046019221F06EF9702101AA26
S31517804210204621F0ADF9019A702122F00F0242F063
S315178042200C022046019221F05FF9002002B010BDE2
S315178042306FF01200FAE7000008B51B48FEF7A6FCD8
S315178042401A491B480EF0D2FBFEF7E0FCC0F3083084
S31517804250692805D1174918480EF0C8FB002008BDF4
S31517804260FEF7D4FCC0F308306828F3D0FEF7CEFCEF
S31517804270C0F30830632801D11049ECE7FEF7C6FC76
S31517804280C0F308306A28F7D0FEF7C0FCC0F30830B1
S31517804290662801D10A49DEE7FEF7B8FCC0F3083075
S315178042A06128DBD1F6E700BFA82585174C678517E8
S315178042B0546785175F678517656785176F678517CE
S315178042C07467851710B50446FEF7A0FCC0F308304F
S315178042D0632808D11349204648F011FD003818BFC6
S315178042E00120404210BDFEF791FCC0F308306A28C2
S315178042F0F0D0FEF78BFCC0F30830692801D10A4944
S31517804300E9E7FEF783FCC0F308306828F7D0FEF795
S315178043107DFCC0F30830612801D10449DBE74FF0F3
S31517804320FF30DFE7EF668517FD6685170C678517FC
S315178043302DE9F0450F469046344D85B01C4605F15C
S315178043409C03019305F19803824600932A4602231C
S31517804350414638460C9E01F0EFFE30B12C4812F0DC
S3151780436006FE012005B0BDE8F085D5F89830B3B1C3
S31517804370A34202D3A219934206D3D5F89C20A24210
S3151780438008D9A1198A423DD821462248A21949F04F
S31517804390CFFCE6E7A34202D2A3199A42F4D21E4B68
S315178043A042460293043B01933946022350460095B1
S315178043B003F09EFD08B11948D1E7D5F8A00080B162
S315178043C0844202D8A319834207D8D5F8A430034468
S315178043D0A34206D3A219934203D221461048A219A3
S315178043E0D5E706F075FE00234146019300933846BC
S315178043F00223064A02F022F80028B3D0094849F06A
S3151780440097FCAEE7A342CAD2BEE700BF8CD5871703
S315178044105C6F8517816F851730D68717B66F8517A7
S31517804420DA6F85171070851710B5FDF7E4FA04460D
S315178044302CF070FA204610BD2DE9F04D8CB0159CE6
S3151780444093469846149AD4F8C030D70743EA02039E
S3151780445006900791C4F8C0301AD5A64D4FF4CA7284
S3151780446000212846FDF7BCF8A3482EF057F9C5F862
S31517804470BC0001F0CBFD064601F0D8FD00230246AD
S31517804480314605F1C40047F0FBFF0123C5F8C0305C
S31517804490149B1E0508D5BBF1000F05DD10220021E0
S315178044A0D8F8000049F0B2FC149B9D0740F1808133
S315178044B0002083454FF0000ACDE90A000BAAC8BF32
S315178044C0D8F800000AA901F0EFFD8A4E0746C6F80C
S315178044D088A0C6F884A0054601F010FE02286CD085
S315178044E0032800F08580012840F09280394683485A
S315178044F049F01EFCD6F8BC303A680893804B9A422E
S3151780450004D0804812F033FD554623E0384601F033
S31517804510B1FB824608B97C48F4E7384601F0A0FC1F
S31517804520089B73B1794812F022FD384601F0B7FB24
S31517804530824618B9764849F0FBFBE5E7754812F0CD
S3151780454016FD797F022903D0734849F0F1FB00E005
S315178045506FB90025674ED6F88830002B5ED16F4825
S3151780456012F005FD012738460CB0BDE8F08DBB7FEC
S31517804570042B0FD00CD8012B01D0022B19D107F1A0
S315178045804003C6F88430FB681BBAC6F8883007E044
S315178045900E2BF3E7624B002138461A1F01F099FB61
S315178045A0402239465F4848F07BFC012337607364A5
S315178045B0D0E7069B5C481968C7E706F18803059319
S315178045C006F184030493642301900293009039467D
S315178045D03046CDF80CA00AAB0BAA04F0F5FC0028E0
S315178045E0B7DB0B9BF76433650A9B7065B364B1E7DA
S315178045F039464E4849F09CFB3846D6F8BC1006F12A
S31517804600880306F1840201F0EFFF0028A2D0A0E705
S31517804610069B4748196849F08BFB75E7284601F0D2
S315178046206DFD022833D0032800F09280012840F0D0
S31517804630A8800020AB7F86F89130EB7F86F8903084
S315178046402B7F86F89230EB681ABA05F1400313442C
S31517804650C6F880302B691BBAC6F88C306B7F86F804
S31517804660933096F89330032B02D0182B40F08B801B
S31517804670304A03210BABA2F1940001F0DDFE00282E
S3151780468080F28880023000F085802B4868E7716D4C
S31517804690F06C06F1910203F0B9FE08B127485FE77F
S315178046A0716DF06C06F1900203F0C4FE08B12448D0
S315178046B056E7716DF06C06F1920203F07FFE08B132
S315178046C020484DE7716DF06C06F1930203F08AFE70
S315178046D008B11D4844E7F06C04F072FA716DC6F89C
S315178046E0800006F18C02F06C03F0B6FE0028B8D075
S315178046F0164835E78CD58717208F8517278F851707
S315178047002705195677EF85178CEF8517598F8517D4
S31517804710A4EF8517748F8517788F8517049085175B
S3151780472014D6871790D58717978F8517B88F8517BC
S31517804730E18F851720D68717C790851724908517F9
S315178047403B908517599085176E9085178590851795
S315178047500223284686F8913002F000F9052386F859
S315178047609000284686F8923002F082F8C6F88000C4
S31517804770284602F0F1F8C6F88C00C6F89400012096
S315178047806FE7AA48ECE6736C002B56D0B3691BBA51
S31517804790C6F8943096F891300E2B08D1D6F8842027
S315178047A0D6F89430C6F88C201344C6F89430F5673B
S315178047B0149B580750D4149B13F0080567D1149B84
S315178047C0DA061BD5D4F89810D4F89C2004F1AC03DC
S315178047D00093521A04F1A80304F1C40001F0D0FD26
S315178047E0074600287FF4BFAED4F8A81090482DF05E
S315178047F0EDFED4F8AC108F482DF0E8FE149B9B067F
S3151780480000F1B48094F8920000F02CFB064600283D
S3151780481040F0BF80149B13F4F86F00F0BA800DB187
S31517804820FDF7E8F894F8920001F0A2FA94F892202E
S315178048300146814849F07CFA94E6336D43B17F4A45
S31517804840716DF06C03F00EFE0028A3D07C4887E6C6
S3151780485000289FD17B4883E67B4A92F891100E29D0
S31517804860A9D87A4B0B41D907A5D492F89230052B44
S3151780487001D00E2B9FD100234246594607980093A5
S31517804880FFF756FD074600287FF46DAE93E7FFF7CF
S31517804890CBFDE36FD4F884A00893D4F88030D4F88E
S315178048A08C6009930BAB94F8907004934FF08073D8
S315178048B00393D4F88830CDE9006A029331460546CA
S315178048C05246384694F8913001F070FA0B9908B32E
S315178048D0089038468E1B01F0B9FA089A014612F1EC
S315178048E0260F05D10DB1FDF785F86FF002073AE669
S315178048F0B6F1807F0AD3564849F01AFA554849F0D7
S3151780490017FA002D63D0FDF775F860E0524849F025
S315178049100FFAF3E78B1B3F3126F03F0021F03F015B
S31517804920C4F88830091AFDF7CFF90B9B0FB9B24532
S3151780493014D0099AB24211D9089A93420ED9636C48
S3151780494043B194F82230042B7FF439AF434812F0E1
S315178049500EFB34E7424812F00AFBD2E7D4F88C10E4
S3151780496004F1C4005A1A47F092FC28E704F1C406EA
S315178049703046D4F8A01003F08DF9304604F1A4021E
S3151780498004F1A00103F018FA074600283FF43AAF5E
S31517804990E9E5149B5F0623D4149B18062CD4149B25
S315178049A0D90532D4149B13F4806738D023464FF435
S315178049B0806241465846009600F039FA07460DB18F
S315178049C0FDF718F8FA1C90D07B1C7FF4CCAD4346C4
S315178049D05A4607990698FDF765F94FF0FF37C2E5EE
S315178049E02346424659464020B04707460028D3D02B
S315178049F01C4812F0BCFAB6E5234642465946802033
S31517804A00B04707460028CAD0F2E72346424659469A
S31517804A104FF48070B04707460028C3D0E8E7002DCB
S31517804A203FF4A1ADFCF7E6FF9DE500BFA49085177F
S31517804A301D9285172A9285173592851720D687173F
S31517804A40F1908517129185178CD58717EBBFFFFFC6
S31517804A50369185177F918517669185179C9185174E
S31517804A60D691851763928517704700002DE9F04D0B
S31517804A70054686B04B4893461C4603912DF0C8FDD4
S31517804A80064670B307464FF0000A304648F060F97D
S31517804A90BA1B904210D8BAF1000F22D0EA0502D578
S31517804AA0414849F045F923465A462846039906B0A0
S31517804AB0BDE8F04DFCF79EBCB84618F8011B3D299A
S31517804AC00DD162B117F8012C662A08D1002140460C
S31517804AD049F0B5F910F0010F18BF4FF0010A474694
S31517804AE0D3E7EB0502D5314849F022F9B5F5806F42
S31517804AF053D1636C002B3DD0D4F8A430D4F8A010D2
S31517804B000593002938D004F1C405284603F0C2F866
S31517804B10284605AA04F1A00103F04EF9054648BBBD
S31517804B20D4F8A00010F028F92946214AD4F8A00015
S31517804B303FF047FD031E01DA023314D119482DF0D1
S31517804B4067FD0546C0B1D4F8A06048F001F9012386
S31517804B501844019300902B463046124A15490FF098
S31517804B600FFF002808DA3FF0E7FA13490246134881
S31517804B7049F0DEF8012011E02046FCF759FCD4F8FD
S31517804B80A020D4F894100E4849F0D2F82046FCF7A6
S31517804B9069FC0C4812F0EBF9ECE7002006B0BDE88B
S31517804BA0F08D00BF379485177D9285179492851758
S31517804BB0BA928517B99285170B598517C19285179A
S31517804BC0D4928517109385172DE9F04104460F4621
S31517804BD098460026151FBE4201DBBDE8F0810EB14F
S31517804BE004F8018B55F8041F204648F051F82868B9
S31517804BF048F0AEF801360444EDE70000B0F5806F53
S31517804C0010B50CD15A6C42B1D3F894400548214659
S31517804C1049F08EF8D9F80000A047012000E000205F
S31517804C2010BD00BFDE8E8517B0F5806F13B51C4695
S31517804C304FF000032CD10093FFF77AFB40B93CF075
S31517804C4095FA38B120F00041124849F071F80120E1
S31517804C5002B010BDD4F8A40008B1D4F8A00005F0AE
S31517804C6015FC18B120F000410B48EEE7D4F89410E4
S31517804C700A4849F05DF80123D4F88810D4F89400CF
S31517804C8084F8913005F0D4FC003818BF0120DFE78F
S31517804C901846DDE7BE8D8517F08D85171B8E851710
S31517804CA0B0F5806FF8B50D4617461C4623D15B6C59
S31517804CB0ABB112482DF0ACFC50B1002149F0BFF8CA
S31517804CC0002D06460DDD0A233A462946FFF77CFF57
S31517804CD0D4F894400A48214649F02AF8A04701207B
S31517804CE00AE008482DF094FC01460028F0D030469B
S31517804CF047F0CEFFECE70020F8BD00BF9B8E8517E7
S31517804D00A48E85173794851770B50D4616461C469B
S31517804D102DF01AFD30B9D4F8881005482DF056FCB9
S31517804D20002070BD31462846D4F894309847F7E767
S31517804D30178F851730B5B0F5806F144687B01CD19D
S31517804D405A6CC2B102ADD3F894200D49284648F063
S31517804D50CFFF2368CDE90035FDF78AF8044608B1F9
S31517804D60FDF776F800216B460222084605F00CFF00
S31517804D700CB1FDF738F8012000E0002007B030BDF0
S31517804D80B4868517B0F5806F2DE9F7450E46174619
S31517804D901D4640D15B6C53B395F82230D5F800A0E9
S31517804DA0042B26D04FF0000A002E2CDD0024A046B7
S31517804DB057F8280047F0CCFF08F10108013046451F
S31517804DC00444F5D1204612F0FFFB20233A4631469C
S31517804DD00446FFF7F9FED5F894501148294648F04E
S31517804DE0A7FF23465146D9F800000E4AA847012047
S31517804DF012E001AB6A460121504600F06AFF019B1B
S31517804E00002BCFD0D0E708482DF002FC054C0028A0
S31517804E1018BF0446DFE7002003B0BDE8F08500BF62
S31517804E20528E8517780C8617379485177047F8B57D
S31517804E3006460F4614461D46FDF7A2F9FFF7F6FFFD
S31517804E402B4631463A462046069EB04795F891300E
S31517804E50012B05D0B4F5007018BF4FF0FF30F8BDA1
S31517804E600020FCE7014B53F820007047C8258517AB
S31517804E7003681A780AB10A2A00D17047013303608A
S31517804E80F6E700008268014602B94268014848F091
S31517804E904FBF00BFA9FB85172DE9F0411F460B7839
S31517804EA004462F2B0D469046ADF5087D1AD1037B08
S31517804EB0C3B100238DF81C30284647F049FF0646B4
S31517804EC007A847F045FF0644B6F5007F11D92A464D
S31517804ED0154807A948F02CFF6FF023000DF5087DBC
S31517804EE0BDE8F0814FF40072216907A847F0D8FE14
S31517804EF0E2E7294607A847F0DFFE07A90B4848F0DF
S31517804F0017FF42460A4902A848F0F2FE204665680E
S31517804F1001AB02AA07A9A8470028DFDB0FB1019BBF
S31517804F203B600120DAE700BFF2EA85170DEB85179C
S31517804F30B486851773B5044610460D461E462DF062
S31517804F40D1FB68B1102101AA48F07FFF00280ADB40
S31517804F50334629462046019AFFF79EFF02B070BD59
S31517804F606FF00100FAE76FF01500F7E710B5044602
S31517804F70406812F077FAE06812F074FA206912F036
S31517804F8071FA606912F06EFAA06912F06BFAE0692D
S31517804F9012F068FA206A12F065FA606A12F062FAFD
S31517804FA02046BDE8104012F05DBA00002DE9F8459D
S31517804FB007680C4698463946054617488A4611F8B3
S31517804FC0013B33B1202A02D1C65CB60601D49A4278
S31517804FD0F4D1AAEB0706701C12F0F6FA206050B1CE
S31517804FE000210D488E42226807D10023935501234D
S31517804FF0C5F800A06360BDE8F88553187A5CB8F1E8
S31517805000000F06D010F802C01CF0010F1CBF20320B
S31517805010D2B21A700131E5E7855C8517F7B50C466C
S315178050201621036805460020019361601E4613F812
S31517805030011B202919D0092917D000B101962329D8
S31517805040019B06D10021184613F8016B7EB901B171
S315178050500190019B19780A290DD1002201336260CC
S315178050600193019B2B6003B0F0BD0120DEE70A2E6A
S31517805070EDD00121E7E709B90222EFE7022A06D127
S3151780508000230A22214601A8FFF790FFE9E70123AB
S315178050902022214601A8FFF789FF0027074E56F8D9
S315178050A037100029DDD0206847F029FE20B906EB96
S315178050B0C70673686360D4E70137F0E73834851716
S315178050C073B502220D46694604460668FFF7A6FFA2
S315178050D00198012809D0216832460548891B48F06E
S315178050E027FE6FF0150002B070BD009B2B60FAE7A4
S315178050F0890F8617F7B50E46022269460546076851
S31517805100FFF78CFF019C012C09D029683A460A487B
S31517805110C91B48F00DFE6FF0150003B0F0BD009D5A
S315178051200A220021284648F0B1FE3060284612F040
S3151780513099F92046F1E700BFE90E861710B51429AD
S31517805140044686B006D8144848F0F2FD6FF01B0067
S3151780515006B010BD4AF01CF804AA01460F484AF05B
S315178051607BF9A8B19DF81530204603939DF8143026
S315178051709DF8102002939DF81330094901939DF8E5
S31517805180123000939DF8113048F0B2FD0120DFE709
S315178051906FF00100DCE700BFCAE58517959486177F
S315178051A0EAE585172DE9F04D00250C46ADF5996D85
S315178051B0A44B2946192280461AA80D930E950F954A
S315178051C0109511951995FCF70BFA29462195012506
S315178051D0402222A8FCF704FA2046FFF753FE236BDA
S315178051E0E5620BB3636B002B04DA00200DF5996D1E
S315178051F0BDE8F08D94482DF075FA05460028F4D051
S31517805200606940B1B2A94FF4007211F0CFFD8F4893
S31517805210B2A90DF0EBFB284647F09AFD002201460E
S31517805220284613F0E4F8E0E7E36823B9616888480D
S3151780523048F07EFD1DE0D4F818A0BAF1000F1AD0F9
S3151780524051464046834AB2ABFFF774FE002802DA0E
S3151780525061688148ECE77F482DF0DAF9B29B824680
S3151780526000931C2103467D4A12A848F02EFD1B2861
S3151780527001D90120BAE700234046794AE168FFF74A
S3151780528059FE002802DA61687648D1E7A36AD907FA
S3151780529016D575482DF0BCF9054674482DF0B8F922
S315178052A0064673482DF0B4F9074672482DF0B0F9C3
S315178052B0334601902A467049009721A848F018FD71
S315178052C0A36A9A070CD56D4919A847F0E1FC1521F1
S315178052D01BA8FFF733FF0028BCBF00238DF8643067
S315178052E0A36A65699B0701D1002D4FD00021644EB3
S315178052F04FF4FE7233A83291FCF772F9002D14BF62
S315178053002846304647F024FD054621A847F020FD5C
S31517805310054419A847F01CFD01350544B5F5007FEE
S31517805320616917D9002914BF0846304647F010FD22
S31517805330044621A847F00CFD054619A847F008FD35
S315178053404FF400720346009221462A464D4848F08C
S31517805350EFFC8EE721B14FF4007232A847F0A0FC1C
S3151780536021A932A847F0A8FC19A932A847F0A4FCAE
S315178053704FF40072B2A932A811F018FDB2A93348BA
S315178053800DF034FB4048B2A948F0D2FC34482DF0D2
S315178053903FF9236907900693CBB147F0D9FC0546A9
S315178053A0206947F0D5FC05440135284612F00CF9DB
S315178053B0069018B9354848F0BBFC5AE72369294641
S315178053C00093334A079B48F080FC069B0793314826
S315178053D02DF01EF9109048B1D4F81CB0BBF1000F10
S315178053E040F0E980236A002B5CD11093079B0E93BC
S315178053F0BAF1000F00F0E180032412AB0F93109BD4
S315178054004BB925482DF004F9109020B923482DF073
S31517805410FFF8109020B10F9B0BB9214B0F930424E3
S31517805420079800F05FFE00F069FE224601460DAB35
S31517805430002800F0C4800021D8F8000004F0B0FAE4
S3151780544088E000BFC6B4851700FA85173794851785
S3151780545009FA851727FA851736FA851761FA851790
S3151780546068FA851776FA8517A1FA8517A8FA851720
S31517805470B1FA8517BBFA8517C3FA8517D3FA851735
S31517805480780C8617DCFA851702FB85170EFB8517AE
S31517805490E2EB851729FB851791FB85179AFB8517ED
S315178054A04B27861748482DF0B3F80546002857D15D
S315178054B046482DF0ADF8054645482DF0A9F807461C
S315178054C0002D4BD1434B1D46434A0FB9414F3B469F
S315178054D0206A0992089347F03BFC089B099A002893
S315178054E042D0216A014411F8016C3C4839492F2E64
S315178054F008BF08460890206A0B920A9347F028FC43
